{
  "contractName": "Election",
  "abi": [
    {
      "inputs": [],
      "stateMutability": "nonpayable",
      "type": "constructor"
    },
    {
      "anonymous": false,
      "inputs": [
        {
          "indexed": false,
          "internalType": "uint256",
          "name": "id",
          "type": "uint256"
        },
        {
          "indexed": false,
          "internalType": "string",
          "name": "name",
          "type": "string"
        },
        {
          "indexed": false,
          "internalType": "uint256",
          "name": "votecount",
          "type": "uint256"
        }
      ],
      "name": "electionupdated",
      "type": "event"
    },
    {
      "inputs": [
        {
          "internalType": "uint256",
          "name": "",
          "type": "uint256"
        }
      ],
      "name": "candidates",
      "outputs": [
        {
          "internalType": "uint256",
          "name": "id",
          "type": "uint256"
        },
        {
          "internalType": "string",
          "name": "name",
          "type": "string"
        },
        {
          "internalType": "uint256",
          "name": "votecount",
          "type": "uint256"
        }
      ],
      "stateMutability": "view",
      "type": "function",
      "constant": true
    },
    {
      "inputs": [],
      "name": "candidatesCount",
      "outputs": [
        {
          "internalType": "uint256",
          "name": "",
          "type": "uint256"
        }
      ],
      "stateMutability": "view",
      "type": "function",
      "constant": true
    },
    {
      "inputs": [
        {
          "internalType": "address",
          "name": "",
          "type": "address"
        }
      ],
      "name": "votedornot",
      "outputs": [
        {
          "internalType": "bool",
          "name": "",
          "type": "bool"
        }
      ],
      "stateMutability": "view",
      "type": "function",
      "constant": true
    },
    {
      "inputs": [
        {
          "internalType": "uint256",
          "name": "_id",
          "type": "uint256"
        }
      ],
      "name": "Vote",
      "outputs": [],
      "stateMutability": "nonpayable",
      "type": "function"
    }
  ],
  "bytecode": "0x60806040523480156200001157600080fd5b50620000586040518060400160405280600c81526020017f446f6e616c64205472756d700000000000000000000000000000000000000000815250620000a460201b60201c565b6200009e6040518060400160405280600c81526020017f42617261636b204f62616d610000000000000000000000000000000000000000815250620000a460201b60201c565b620002c4565b600080815480929190620000b89062000218565b919050555060405180606001604052806000548152602001828152602001600081525060016000805481526020019081526020016000206000820151816000015560208201518160010190805190602001906200011792919062000128565b506040820151816002015590505050565b8280546200013690620001e2565b90600052602060002090601f0160209004810192826200015a5760008555620001a6565b82601f106200017557805160ff1916838001178555620001a6565b82800160010185558215620001a6579182015b82811115620001a557825182559160200191906001019062000188565b5b509050620001b59190620001b9565b5090565b5b80821115620001d4576000816000905550600101620001ba565b5090565b6000819050919050565b60006002820490506001821680620001fb57607f821691505b6020821081141562000212576200021162000295565b5b50919050565b60006200022582620001d8565b91507fffffffffffffffffffffffffffffffffffffffffffffffffffffffffffffffff8214156200025b576200025a62000266565b5b600182019050919050565b7f4e487b7100000000000000000000000000000000000000000000000000000000600052601160045260246000fd5b7f4e487b7100000000000000000000000000000000000000000000000000000000600052602260045260246000fd5b6107f680620002d46000396000f3fe608060405234801561001057600080fd5b506004361061004c5760003560e01c80631bc57022146100515780632d35a8a2146100815780633477ee2e1461009f578063dcd6a5cd146100d1575b600080fd5b61006b6004803603810190610066919061038e565b6100ed565b604051610078919061051d565b60405180910390f35b61008961010d565b6040516100969190610558565b60405180910390f35b6100b960048036038101906100b491906103b7565b610113565b6040516100c893929190610573565b60405180910390f35b6100eb60048036038101906100e691906103b7565b6101c5565b005b60026020528060005260406000206000915054906101000a900460ff1681565b60005481565b600160205280600052604060002060009150905080600001549080600101805461013c906106f1565b80601f0160208091040260200160405190810160405280929190818152602001828054610168906106f1565b80156101b55780601f1061018a576101008083540402835291602001916101b5565b820191906000526020600020905b81548152906001019060200180831161019857829003601f168201915b5050505050908060020154905083565b600260003373ffffffffffffffffffffffffffffffffffffffff1673ffffffffffffffffffffffffffffffffffffffff16815260200190815260200160002060009054906101000a900460ff1615610252576040517f08c379a000000000000000000000000000000000000000000000000000000000815260040161024990610538565b60405180910390fd5b60006001600083815260200190815260200160002060000154141561027657600080fd5b6001806000838152602001908152602001600020600201600082825461029c9190610620565b925050819055506001600260003373ffffffffffffffffffffffffffffffffffffffff1673ffffffffffffffffffffffffffffffffffffffff16815260200190815260200160002060006101000a81548160ff0219169083151502179055507f3c841f91385f410e6f12269c9a0c0eb656e360f1e2d6f91144cfd51a10a2a31881600160008481526020019081526020016000206001016001600085815260200190815260200160002060020154604051610359939291906105b1565b60405180910390a150565b60008135905061037381610792565b92915050565b600081359050610388816107a9565b92915050565b6000602082840312156103a057600080fd5b60006103ae84828501610364565b91505092915050565b6000602082840312156103c957600080fd5b60006103d784828501610379565b91505092915050565b6103e981610688565b82525050565b60006103fa82610604565b610404818561060f565b93506104148185602086016106be565b61041d81610781565b840191505092915050565b60008154610435816106f1565b61043f818661060f565b9450600182166000811461045a576001811461046c5761049f565b60ff198316865260208601935061049f565b610475856105ef565b60005b8381101561049757815481890152600182019150602081019050610478565b808801955050505b50505092915050565b60006104b560258361060f565b91507f596f75206861766520616c7265616479207265676973746572656420796f757260008301527f20766f74650000000000000000000000000000000000000000000000000000006020830152604082019050919050565b610517816106b4565b82525050565b600060208201905061053260008301846103e0565b92915050565b60006020820190508181036000830152610551816104a8565b9050919050565b600060208201905061056d600083018461050e565b92915050565b6000606082019050610588600083018661050e565b818103602083015261059a81856103ef565b90506105a9604083018461050e565b949350505050565b60006060820190506105c6600083018661050e565b81810360208301526105d88185610428565b90506105e7604083018461050e565b949350505050565b60008190508160005260206000209050919050565b600081519050919050565b600082825260208201905092915050565b600061062b826106b4565b9150610636836106b4565b9250827fffffffffffffffffffffffffffffffffffffffffffffffffffffffffffffffff0382111561066b5761066a610723565b5b828201905092915050565b600061068182610694565b9050919050565b60008115159050919050565b600073ffffffffffffffffffffffffffffffffffffffff82169050919050565b6000819050919050565b60005b838110156106dc5780820151818401526020810190506106c1565b838111156106eb576000848401525b50505050565b6000600282049050600182168061070957607f821691505b6020821081141561071d5761071c610752565b5b50919050565b7f4e487b7100000000000000000000000000000000000000000000000000000000600052601160045260246000fd5b7f4e487b7100000000000000000000000000000000000000000000000000000000600052602260045260246000fd5b6000601f19601f8301169050919050565b61079b81610676565b81146107a657600080fd5b50565b6107b2816106b4565b81146107bd57600080fd5b5056fea2646970667358221220d1b2e37ef870e0d330ecfccaeb317fd75c9738c066dc4374ea3996a163a616cd64736f6c63430008000033",
  "immutableReferences": {},
  "source": "pragma solidity ^0.8.0;\r\n// SPDX-License-Identifier: MIT\r\n\r\ncontract Election{\r\n    // struct candidate\r\n    // candidate count\r\n    // mapping candidate\r\n    // constructor\r\n    \r\n    struct Candidate{\r\n        uint id;\r\n        string name;\r\n        uint votecount;\r\n    }\r\n    \r\n    // candidate count\r\n    uint public candidatesCount;\r\n    \r\n    mapping(uint => Candidate) public candidates;\r\n    // input any address of a smart contract from ether scan; address a = 0x0fC5025C764cE34df352757e82f7B5c4Df39A836\r\n    \r\n    mapping(address => bool) public votedornot;\r\n    \r\n    \r\n    event electionupdated(\r\n        uint id,\r\n        string name,\r\n        uint votecount);\r\n    \r\n    constructor(){\r\n        // code to initiate Eg: Donald Trump and Barack Obama Election\r\n        addCandidate(\"Donald Trump\");\r\n        addCandidate(\"Barack Obama\");\r\n    }\r\n    \r\n    // function to add candidates\r\n    function addCandidate(string memory name) private{\r\n        candidatesCount++;\r\n        candidates[candidatesCount] = Candidate(candidatesCount, name, 0);\r\n    }\r\n    \r\n    function Vote(uint _id) public{\r\n        // check the person has not voted again\r\n        require(!votedornot[msg.sender], \"You have already registered your vote\");\r\n        // the id that the person has input is available\r\n        require(candidates[_id].id != 0);\r\n        \r\n        \r\n        // increase the vote count of the person whom the candidate votes\r\n        candidates[_id].votecount += 1;\r\n        // change the votedornot boolean value to true\r\n        votedornot[msg.sender] = true;\r\n        emit electionupdated(_id, candidates[_id].name, candidates[_id].votecount);\r\n    }\r\n}",
  "sourcePath": "C:/Sibi/DApp Duplicate Clone Forgery Projects/VotingApp/contracts/Election.sol",
  "compiler": {
    "name": "solc",
    "version": "0.8.0+commit.c7dfd78e.Emscripten.clang"
  },
  "schemaVersion": "3.4.1",
  "updatedAt": "2021-07-19T13:19:29.155Z",
  "networkType": "ethereum",
  "devdoc": {
    "kind": "dev",
    "methods": {},
    "version": 1
  },
  "userdoc": {
    "kind": "user",
    "methods": {},
    "version": 1
  }
}